01REMESSA01COBRANCA       20250158479927000136BANCO PAULISTA                611PAULISTA S.A.  281125        MX0000001                                                                                                                                                                                                                                                                                                                                 000001
1                   02000000000000AA000000000400500000000084720000000000000000000000000040130 000000     0  77301295809 20112500000000040130000000071 310125000020000000000000000000000000000000000000000401300000000000000100050403338468AFONSO ALEXANDRE REGIS CAVALCANTE       ENDERECO COMPLETO                       301295809   00000000CAPITAL CONSIG SOCIEDADE DE CREDITO DIRE      4008366700011000000000000000000000000000000000000000000000000002
1                   02000000000000AA000000000400500000000085660000000000000000000000000065900 000000     0  77301296517 20092500000000065900000000071 310125000020000000000000000000000000000000000000000659000000000000000100036527580487DEUSIRA WANDERLEY GUEDES                ENDERECO COMPLETO                       301296517   00000000CAPITAL CONSIG SOCIEDADE DE CREDITO DIRE      4008366700011000000000000000000000000000000000000000000000000003
1                   02000000000000AA000000000400500000000078930000000000000000000000000039550 000000     0  77301297837 20092500000000039550000000071 030225000020000000000000000000000000000000000000000395500000000000000100045310297472MARIA REGINA ARAUJO B DOS SANTOS        ENDERECO COMPLETO                       301297837   00000000CAPITAL CONSIG SOCIEDADE DE CREDITO DIRE      4008366700011000000000000000000000000000000000000000000000000004
1                   02000000000000AA000000000400500000000084090000000000000000000000000031260 000000     0  77301302377 20092500000000031260000000071 030225000020000000000000000000000000000000000000000312600000000000000100020753187434JOAO FRANCISCO DA SILVA FILHO           ENDERECO COMPLETO                       301302377   00000000CAPITAL CONSIG SOCIEDADE DE CREDITO DIRE      4008366700011000000000000000000000000000000000000000000000000005
1                   02000000000000AA000000000400500000000076050000000000000000000000000450000 000000     0  77301306217 20092500000000450000000000071 040225000020000000000000000000000000000000000000004500000000000000000100061694266400JOSELIO AUGUSTO DOS SANTOS              ENDERECO COMPLETO                       301306217   00000000CAPITAL CONSIG SOCIEDADE DE CREDITO DIRE      4008366700011000000000000000000000000000000000000000000000000006
1                   02000000000000AA000000000400500000000077010000000000000000000000000030600 000000     0  77301305077 20092500000000030600000000071 040225000020000000000000000000000000000000000000000306000000000000000100045065411468EVERALDO GOMES DA SILVA                 ENDERECO COMPLETO                       301305077   00000000CAPITAL CONSIG SOCIEDADE DE CREDITO DIRE      4008366700011000000000000000000000000000000000000000000000000007
1                   02000000000000AA000000000400500000000080870000000000000000000000000050000 000000     0  77301302789 20112500000000050000000000071 030225000020000000000000000000000000000000000000000500000000000000000100095389288491ANA LUCIA MARIA BRASIL                  ENDERECO COMPLETO                       301302789   00000000CAPITAL CONSIG SOCIEDADE DE CREDITO DIRE      4008366700011000000000000000000000000000000000000000000000000008
1                   02000000000000AA000000000400500000000081570000000000000000000000000035260 000000     0  77301304997 20092500000000035260000000071 030225000020000000000000000000000000000000000000000352600000000000000100033508453120RAFAEL FERREIRA DE LIMA                 ENDERECO COMPLETO                       301304997   00000000CAPITAL CONSIG SOCIEDADE DE CREDITO DIRE      4008366700011000000000000000000000000000000000000000000000000009
1                   02000000000000AA000000000400500000000083510000000000000000000000000098000 000000     0  77301303629 20112500000000098000000000071 030225000020000000000000000000000000000000000000000980000000000000000100010038262452GIULLYAN ANDERSON BARBOSA ARAUJO        ENDERECO COMPLETO                       301303629   00000000CAPITAL CONSIG SOCIEDADE DE CREDITO DIRE      4008366700011000000000000000000000000000000000000000000000000010
1                   02000000000000AA000000000400500000000088650000000000000000000000000030890 000000     0  77301341200820112500000000030890000000071 110225000020000000000000000000000000000000000000000308900000000000000100014780461472FRANCISCO ASCENDINO BATISTA PORTELA     ENDERECO COMPLETO                       301341200   00000000CAPITAL CONSIG SOCIEDADE DE CREDITO DIRE      4008366700011000000000000000000000000000000000000000000000000011
1                   02000000000000AA000000000400500000000089590000000000000000000000000071230 000000     0  77301336860620092500000000071230000000071 110225000020000000000000000000000000000000000000000712300000000000000100025049917468ELIZABETE JUDITE DO CARMO               ENDERECO COMPLETO                       301336860   00000000CAPITAL CONSIG SOCIEDADE DE CREDITO DIRE      4008366700011000000000000000000000000000000000000000000000000012
1                   02000000000000AA000000000400500000000092470000000000000000000000000035250 000000     0  77301336130620092500000000035250000000071 110225000020000000000000000000000000000000000000000352500000000000000100023717858491GERALDO ALVES DE FRANCA                 ENDERECO COMPLETO                       301336130   00000000CAPITAL CONSIG SOCIEDADE DE CREDITO DIRE      4008366700011000000000000000000000000000000000000000000000000013
1                   02000000000000AA000000000400500000000091520000000000000000000000000031720 000000     0  77301317950720092500000000031720000000071 110225000020000000000000000000000000000000000000000317200000000000000100035227028400JOSE ROBERTO GOMES DA SILVA             ENDERECO COMPLETO                       301317950   00000000CAPITAL CONSIG SOCIEDADE DE CREDITO DIRE      4008366700011000000000000000000000000000000000000000000000000014
1                   02000000000000AA000000000400500000000087330000000000000000000000000540090 000000     0  77301333590820102500000000540090000000071 100225000020000000000000000000000000000000000000005400900000000000000100005215236488ERYSSON ROMERO GOMES DE BRITO           ENDERECO COMPLETO                       301333590   00000000CAPITAL CONSIG SOCIEDADE DE CREDITO DIRE      4008366700011000000000000000000000000000000000000000000000000015
1                   02000000000000AA000000000400500000000086730000000000000000000000000115590 000000     0  77301333600820102500000000115590000000071 100225000020000000000000000000000000000000000000001155900000000000000100036509981491TEREZA CRISTINA DE BRITO                ENDERECO COMPLETO                       301333600   00000000CAPITAL CONSIG SOCIEDADE DE CREDITO DIRE      4008366700011000000000000000000000000000000000000000000000000016
1                   02000000000000AA000000000400500000000087930000000000000000000000000051040 000000     0  77301335340820112500000000051040000000071 110225000020000000000000000000000000000000000000000510400000000000000100000771099452IVANNIA ZILDA GOMES VIANA               ENDERECO COMPLETO                       301335340   00000000CAPITAL CONSIG SOCIEDADE DE CREDITO DIRE      4008366700011000000000000000000000000000000000000000000000000017
1                   02000000000000AA000000000400500000000093580000000000000000000000000216530 000000     0  77301314850720092500000000216530000000071 120225000020000000000000000000000000000000000000002165300000000000000100026796796870HERCULYS RONIERIE RODRIGUES ROLIM - 1977ENDERECO COMPLETO                       301314850   00000000CAPITAL CONSIG SOCIEDADE DE CREDITO DIRE      4008366700011000000000000000000000000000000000000000000000000018
1                   02000000000000AA000000000400500000000098380000000000000000000000000138970 000000     0  77301315620720092500000000138970000000071 050225000020000000000000000000000000000000000000001389700000000000000100032677081334FRANCISCA FRANCILENE PEREIRA S. - 1967  ENDERECO COMPLETO                       301315620   00000000CAPITAL CONSIG SOCIEDADE DE CREDITO DIRE      4008366700011000000000000000000000000000000000000000000000000019
1                   02000000000000AA000000000400500000000097420000000000000000000000000280000 000000     0  77301319630720092500000000280000000000071 130225000020000000000000000000000000000000000000002800000000000000000100028924509349LEILA MARIA LOPES DO NASCIMENTO - 1970  ENDERECO COMPLETO                       301319630   00000000CAPITAL CONSIG SOCIEDADE DE CREDITO DIRE      4008366700011000000000000000000000000000000000000000000000000020
1                   02000000000000AA000000000400500000000094540000000000000000000000000189340 000000     0  77301330430720092500000000189340000000071 120225000020000000000000000000000000000000000000001893400000000000000100002683587376NORMA BRUNA DE SOUSA MEN. MENEZ - 1988  ENDERECO COMPLETO                       301330430   00000000CAPITAL CONSIG SOCIEDADE DE CREDITO DIRE      4008366700011000000000000000000000000000000000000000000000000021
1                   02000000000000AA000000000400500000000095500000000000000000000000000045940 000000     0  77301325180720092500000000045940000000071 120225000020000000000000000000000000000000000000000459400000000000000100022355669368ANA MARIA DE LIMA - 1963                ENDERECO COMPLETO                       301325180   00000000CAPITAL CONSIG SOCIEDADE DE CREDITO DIRE      4008366700011000000000000000000000000000000000000000000000000022
1                   02000000000000AA000000000400500000000096460000000000000000000000000193100 000000     0  77301322050720092500000000193100000000071 130225000020000000000000000000000000000000000000001931000000000000000100094560919372FABIANO MAXIMO SILVA DE ARAUJO - 1984   ENDERECO COMPLETO                       301322050   00000000CAPITAL CONSIG SOCIEDADE DE CREDITO DIRE      4008366700011000000000000000000000000000000000000000000000000023
1                   02000000000000AA000000000400500000000100300000000000000000000000000130610 000000     0  77301343630720092500000000130610000000071 120225000020000000000000000000000000000000000000001306100000000000000100084396601387MARIA ALICE COELHO GUIMARAES - 1963     ENDERECO COMPLETO                       301343630   00000000CAPITAL CONSIG SOCIEDADE DE CREDITO DIRE      4008366700011000000000000000000000000000000000000000000000000024
1                   02000000000000AA000000000400500000000101260000000000000000000000000237090 000000     0  77301342650720092500000000237090000000071 120225000020000000000000000000000000000000000000002370900000000000000100045478350397JOSE ADRILSON FACANHA RAMALHO - 1973    ENDERECO COMPLETO                       301342650   00000000CAPITAL CONSIG SOCIEDADE DE CREDITO DIRE      4008366700011000000000000000000000000000000000000000000000000025
1                   02000000000000AA000000000400500000000102220000000000000000000000000252000 000000     0  77301335730720092500000000252000000000071 130225000020000000000000000000000000000000000000002520000000000000000100020298587300ANTONIO RODRIGUES DA SILVA - 1958       ENDERECO COMPLETO                       301335730   00000000CAPITAL CONSIG SOCIEDADE DE CREDITO DIRE      4008366700011000000000000000000000000000000000000000000000000026
1                   02000000000000AA000000000400500000000105090000000000000000000000000040830 000000     0  77301346490620092500000000040830000000071 130225000020000000000000000000000000000000000000000408300000000000000100060217340415GILVANDRO DA SILVA SEVERO - 1968        ENDERECO COMPLETO                       301346490   00000000CAPITAL CONSIG SOCIEDADE DE CREDITO DIRE      4008366700011000000000000000000000000000000000000000000000000027
1                   02000000000000AA000000000400500000000099330000000000000000000000000057540 000000     0  77301346930620092500000000057540000000071 130225000020000000000000000000000000000000000000000575400000000000000100057513147353FRANCISCA ACIZA DE SOUZA ALVES - 1963   ENDERECO COMPLETO                       301346930   00000000CAPITAL CONSIG SOCIEDADE DE CREDITO DIRE      4008366700011000000000000000000000000000000000000000000000000028
1                   02000000000000AA000000000400500000000104130000000000000000000000000308400 000000     0  77301352190620092500000000308400000000071 140225000020000000000000000000000000000000000000003084000000000000000100021357510306MARIA DA PAZ LOPES DA SILVA - 1961      ENDERECO COMPLETO                       301352190   00000000CAPITAL CONSIG SOCIEDADE DE CREDITO DIRE      4008366700011000000000000000000000000000000000000000000000000029
1                   02000000000000AA000000000400500000000106050000000000000000000000000053240 000000     0  77301349250620092500000000053240000000071 130225000020000000000000000000000000000000000000000532400000000000000100043709907420OZINALDO RODRIGUES CHAVES - 1965        ENDERECO COMPLETO                       301349250   00000000CAPITAL CONSIG SOCIEDADE DE CREDITO DIRE      4008366700011000000000000000000000000000000000000000000000000030
1                   02000000000000AA000000000400500000000106770000000000000000000000000053300 000000     0  77301348840620092500000000053300000000071 130225000020000000000000000000000000000000000000000533000000000000000100034298371115MARIA DA ASSUNCAO P. DE OLIVEIRA - 1963 ENDERECO COMPLETO                       301348840   00000000CAPITAL CONSIG SOCIEDADE DE CREDITO DIRE      4008366700011000000000000000000000000000000000000000000000000031
1                   02000000000000AA000000000400500000000107730000000000000000000000000033000 000000     0  77301347340620092500000000033000000000071 130225000020000000000000000000000000000000000000000330000000000000000100000888205481VASCO VINICIUS DE ANDRADE CASTRO - 1979 ENDERECO COMPLETO                       301347340   00000000CAPITAL CONSIG SOCIEDADE DE CREDITO DIRE      4008366700011000000000000000000000000000000000000000000000000032
1                   02000000000000AA000000000400500000000103170000000000000000000000000221640 000000     0  77301352300620092500000000221640000000071 140225000020000000000000000000000000000000000000002216400000000000000100010185399304JOSE RODRIGUES DO NASCIMENTO - 1955     ENDERECO COMPLETO                       301352300   00000000CAPITAL CONSIG SOCIEDADE DE CREDITO DIRE      4008366700011000000000000000000000000000000000000000000000000033
1                   02000000000000AA000000000400500000000108710000000000000000000000000058130 000000     0  77301355300820112500000000058130000000071 170225000020000000000000000000000000000000000000000581300000000000000100061685259472HERIBERTO FARIAS DE LIMA - 1971         ENDERECO COMPLETO                       301355300   00000000CAPITAL CONSIG SOCIEDADE DE CREDITO DIRE      4008366700011000000000000000000000000000000000000000000000000034
1                   02000000000000AA000000000400500000000109650000000000000000000000000052610 000000     0  77301354300620092500000000052610000000071 170225000020000000000000000000000000000000000000000526100000000000000100028567773415ANESIA MARIA DE QUEIROZ - 1962          ENDERECO COMPLETO                       301354300   00000000CAPITAL CONSIG SOCIEDADE DE CREDITO DIRE      4008366700011000000000000000000000000000000000000000000000000035
1                   02000000000000AA000000000400500000000132380000000000000000000000000281460 000000     0  77301336210720092500000000281460000000071 170225000020000000000000000000000000000000000000002814600000000000000100072060972353VALDEMAR LIMA DO VALE - 1973            ENDERECO COMPLETO                       301336210   00000000CAPITAL CONSIG SOCIEDADE DE CREDITO DIRE      4008366700011000000000000000000000000000000000000000000000000036
1                   02000000000000AA000000000400500000000144860000000000000000000000000139910 000000     0  77301340930720092500000000139910000000071 130225000020000000000000000000000000000000000000001399100000000000000100035831707334ANGELA MARIA DOS SANTOS SILVA - 1962    ENDERECO COMPLETO                       301340930   00000000CAPITAL CONSIG SOCIEDADE DE CREDITO DIRE      4008366700011000000000000000000000000000000000000000000000000037
1                   02000000000000AA000000000400500000000121810000000000000000000000000182510 000000     0  77301346090620092500000000182510000000071 130225000020000000000000000000000000000000000000001825100000000000000100005708321369JACKSON ALVES BEZERRA - 1993            ENDERECO COMPLETO                       301346090   00000000CAPITAL CONSIG SOCIEDADE DE CREDITO DIRE      4008366700011000000000000000000000000000000000000000000000000038
1                   02000000000000AA000000000400500000000124700000000000000000000000000306500 000000     0  77301344470720092500000000306500000000071 120225000020000000000000000000000000000000000000003065000000000000000100063783622387JOAO PAULO DE SOUSA MOURA - 1980        ENDERECO COMPLETO                       301344470   00000000CAPITAL CONSIG SOCIEDADE DE CREDITO DIRE      4008366700011000000000000000000000000000000000000000000000000039
1                   02000000000000AA000000000400500000000138140000000000000000000000000213150 000000     0  77301345080720092500000000213150000000071 170225000020000000000000000000000000000000000000002131500000000000000100090258150300MARTA MARIA COSTA TELES - 1969          ENDERECO COMPLETO                       301345080   00000000CAPITAL CONSIG SOCIEDADE DE CREDITO DIRE      4008366700011000000000000000000000000000000000000000000000000040
1                   02000000000000AA000000000400500000000147730000000000000000000000000165000 000000     0  77301345940620092500000000165000000000071 170225000020000000000000000000000000000000000000001650000000000000000100017019419372PAULO MACIEL DE OLIVEIRA - 1958         ENDERECO COMPLETO                       301345940   00000000CAPITAL CONSIG SOCIEDADE DE CREDITO DIRE      4008366700011000000000000000000000000000000000000000000000000041
1                   02000000000000AA000000000400500000000153490000000000000000000000000078000 000000     0  77301345680620092500000000078000000000071 170225000020000000000000000000000000000000000000000780000000000000000100011872268315ISAURA SANTOS DE AQUINO - 1954          ENDERECO COMPLETO                       301345680   00000000CAPITAL CONSIG SOCIEDADE DE CREDITO DIRE      4008366700011000000000000000000000000000000000000000000000000042
1                   02000000000000AA000000000400500000000126610000000000000000000000000243000 000000     0  77301347740620092500000000243000000000071 130225000020000000000000000000000000000000000000002430000000000000000100022070664368VICENTE DE PAULA TABOSA LIMA - 1960     ENDERECO COMPLETO                       301347740   00000000CAPITAL CONSIG SOCIEDADE DE CREDITO DIRE      4008366700011000000000000000000000000000000000000000000000000043
1                   02000000000000AA000000000400500000000127570000000000000000000000000165000 000000     0  77301347080620092500000000165000000000071 130225000020000000000000000000000000000000000000001650000000000000000100031648363334DACY OLIVEIRA FERREIRA - 1952           ENDERECO COMPLETO                       301347080   00000000CAPITAL CONSIG SOCIEDADE DE CREDITO DIRE      4008366700011000000000000000000000000000000000000000000000000044
1                   02000000000000AA000000000400500000000128530000000000000000000000000238000 000000     0  77301348620620092500000000238000000000071 130225000020000000000000000000000000000000000000002380000000000000000100029416760315JOSE ALDEMIR SILVA DE ARAUJO - 1971     ENDERECO COMPLETO                       301348620   00000000CAPITAL CONSIG SOCIEDADE DE CREDITO DIRE      4008366700011000000000000000000000000000000000000000000000000045
1                   02000000000000AA000000000400500000000131410000000000000000000000000178000 000000     0  77301348880620092500000000178000000000071 130225000020000000000000000000000000000000000000001780000000000000000100026319977353MARIA IRANI MARTINS PROCOPIO - 1965     ENDERECO COMPLETO                       301348880   00000000CAPITAL CONSIG SOCIEDADE DE CREDITO DIRE      4008366700011000000000000000000000000000000000000000000000000046
1                   02000000000000AA000000000400500000000123740000000000000000000000000232390 000000     0  77301317200720092500000000232390000000071 120225000020000000000000000000000000000000000000002323900000000000000100019273967353FRANCISCO VIANA DA COSTA - 1960         ENDERECO COMPLETO                       301317200   00000000CAPITAL CONSIG SOCIEDADE DE CREDITO DIRE      4008366700011000000000000000000000000000000000000000000000000047
1                   02000000000000AA000000000400500000000129510000000000000000000000000270450 000000     0  77301319510820102500000000270450000000071 130225000020000000000000000000000000000000000000002704500000000000000100072304251315JOSAILTON DE ARAUJO SOUSA - 1975        ENDERECO COMPLETO                       301319510   00000000CAPITAL CONSIG SOCIEDADE DE CREDITO DIRE      4008366700011000000000000000000000000000000000000000000000000048
1                   02000000000000AA000000000400500000000136210000000000000000000000000293690 000000     0  77301319910620092500000000293690000000071 130225000020000000000000000000000000000000000000002936900000000000000100031433880300AFRANIO MARTINS FERREIRA - 1964         ENDERECO COMPLETO                       301319910   00000000CAPITAL CONSIG SOCIEDADE DE CREDITO DIRE      4008366700011000000000000000000000000000000000000000000000000049
1                   02000000000000AA000000000400500000000140060000000000000000000000000251100 000000     0  77301317300720092500000000251100000000071 130225000020000000000000000000000000000000000000002511000000000000000100047992743334AURELIO ALEXANDRE MARCOS - 1969         ENDERECO COMPLETO                       301317300   00000000CAPITAL CONSIG SOCIEDADE DE CREDITO DIRE      4008366700011000000000000000000000000000000000000000000000000050
1                   02000000000000AA000000000400500000000116060000000000000000000000000180440 000000     0  77301323680720092500000000180440000000071 070225000020000000000000000000000000000000000000001804400000000000000100008794582408MATEUS FREIRE DE ALMEIDA PIRES - 1994   ENDERECO COMPLETO                       301323680   00000000CAPITAL CONSIG SOCIEDADE DE CREDITO DIRE      4008366700011000000000000000000000000000000000000000000000000051
1                   02000000000000AA000000000400500000000117020000000000000000000000000408580 000000     0  77301324230720092500000000408580000000071 070225000020000000000000000000000000000000000000004085800000000000000100034899006349JOSE CLAUDIO MARQUES DA COSTA - 1968    ENDERECO COMPLETO                       301324230   00000000CAPITAL CONSIG SOCIEDADE DE CREDITO DIRE      4008366700011000000000000000000000000000000000000000000000000052
1                   02000000000000AA000000000400500000000119900000000000000000000000000200450 000000     0  77301322010720092500000000200450000000071 120225000020000000000000000000000000000000000000002004500000000000000100036259730306MARCOS ANTONIO R. DE AZEVEDO - 1969     ENDERECO COMPLETO                       301322010   00000000CAPITAL CONSIG SOCIEDADE DE CREDITO DIRE      4008366700011000000000000000000000000000000000000000000000000053
1                   02000000000000AA000000000400500000000139100000000000000000000000000122530 000000     0  77301320030720092500000000122530000000071 120225000020000000000000000000000000000000000000001225300000000000000100036718955353MARIA ERIVANDA PAIVA DE LIMA - 1964     ENDERECO COMPLETO                       301320030   00000000CAPITAL CONSIG SOCIEDADE DE CREDITO DIRE      4008366700011000000000000000000000000000000000000000000000000054
1                   02000000000000AA000000000400500000000141980000000000000000000000000100090 000000     0  77301327210720092500000000100090000000071 180225000020000000000000000000000000000000000000001000900000000000000100005799139372LUIZ ELEUTERIO SOBRINHO - 1955          ENDERECO COMPLETO                       301327210   00000000CAPITAL CONSIG SOCIEDADE DE CREDITO DIRE      4008366700011000000000000000000000000000000000000000000000000055
1                   02000000000000AA000000000400500000000117980000000000000000000000000130000 000000     0  77301343740720092500000000130000000000071 120225000020000000000000000000000000000000000000001300000000000000000100032143532334ANTONIO ARI UCHOA DA SILVA - 1965       ENDERECO COMPLETO                       301343740   00000000CAPITAL CONSIG SOCIEDADE DE CREDITO DIRE      4008366700011000000000000000000000000000000000000000000000000056
1                   02000000000000AA000000000400500000000118940000000000000000000000000271480 000000     0  77301343960720092500000000271480000000071 120225000020000000000000000000000000000000000000002714800000000000000100023395648320ANTONIA OZAIR MENDES DOS SANTOS - 1965  ENDERECO COMPLETO                       301343960   00000000CAPITAL CONSIG SOCIEDADE DE CREDITO DIRE      4008366700011000000000000000000000000000000000000000000000000057
1                   02000000000000AA000000000400500000000120860000000000000000000000000198900 000000     0  77301339490720092500000000198900000000071 110225000020000000000000000000000000000000000000001989000000000000000100003146244306TAILLYS E. VIEIRA DE ALMEIDA - 1989     ENDERECO COMPLETO                       301339490   00000000CAPITAL CONSIG SOCIEDADE DE CREDITO DIRE      4008366700011000000000000000000000000000000000000000000000000058
1                   02000000000000AA000000000400500000000137180000000000000000000000000191760 000000     0  77301231520720092500000000191760000000071 120225000020000000000000000000000000000000000000001917600000000000000100039869571115MARIA DE F. FURTADO DOS SANTOS - 1966   ENDERECO COMPLETO                       301231520   00000000CAPITAL CONSIG SOCIEDADE DE CREDITO DIRE      4008366700011000000000000000000000000000000000000000000000000059
1                   02000000000000AA000000000400500000000149660000000000000000000000000125080 000000     0  77301257310720092500000000125080000000071 110225000020000000000000000000000000000000000000001250800000000000000100089769201391ROSIANE DE SOUSA - 1970                 ENDERECO COMPLETO                       301257310   00000000CAPITAL CONSIG SOCIEDADE DE CREDITO DIRE      4008366700011000000000000000000000000000000000000000000000000060
1                   02000000000000AA000000000400500000000148690000000000000000000000000217430 000000     0  77301361050630092500000000217430000000071 170225000020000000000000000000000000000000000000002174300000000000000100006210078389YURI CLAUDIO SILVA FERREIRA - 1994      ENDERECO COMPLETO                       301361050   00000000CAPITAL CONSIG SOCIEDADE DE CREDITO DIRE      4008366700011000000000000000000000000000000000000000000000000061
1                   02000000000000AA000000000400500000000150610000000000000000000000000167640 000000     0  77301361450630092500000000167640000000071 180225000020000000000000000000000000000000000000001676400000000000000100019459238300GILBERTO ALVES FEITOSA - 1961           ENDERECO COMPLETO                       301361450   00000000CAPITAL CONSIG SOCIEDADE DE CREDITO DIRE      4008366700011000000000000000000000000000000000000000000000000062
1                   02000000000000AA000000000400500000000154450000000000000000000000000141890 000000     0  77301361510630092500000000141890000000071 180225000020000000000000000000000000000000000000001418900000000000000100043512313353IVONETE VIANA FREIRE - 1971             ENDERECO COMPLETO                       301361510   00000000CAPITAL CONSIG SOCIEDADE DE CREDITO DIRE      4008366700011000000000000000000000000000000000000000000000000063
1                   02000000000000AA000000000400500000000155410000000000000000000000000346360 000000     0  77301362420630092500000000346360000000071 180225000020000000000000000000000000000000000000003463600000000000000100005784930397VANDA MARIA DE LIMA - 1954              ENDERECO COMPLETO                       301362420   00000000CAPITAL CONSIG SOCIEDADE DE CREDITO DIRE      4008366700011000000000000000000000000000000000000000000000000064
1                   02000000000000AA000000000400500000000142930000000000000000000000000109640 000000     0  77301348880620092500000000109640000000071 130225000020000000000000000000000000000000000000001096400000000000000100001437193358ANTONIA ELIZIANE PAZ DE OLIVEIRA - 1985 ENDERECO COMPLETO                       301348880   00000000CAPITAL CONSIG SOCIEDADE DE CREDITO DIRE      4008366700011000000000000000000000000000000000000000000000000065
1                   02000000000000AA000000000400500000000125670000000000000000000000000374760 000000     0  77301353790830112500000000374760000000071 140225000020000000000000000000000000000000000000003716300000000000000100011760915300JOSE SIDOU ALBUQUERQUE - 1957           ENDERECO COMPLETO                       301353790   00000000CAPITAL CONSIG SOCIEDADE DE CREDITO DIRE      4008366700011000000000000000000000000000000000000000000000000066
1                   02000000000000AA000000000400500000000130470000000000000000000000000195000 000000     0  77301351780820112500000000195000000000071 140225000020000000000000000000000000000000000000001950000000000000000100061572675349AGLAIRTON ALVES FERREIRA - 1978         ENDERECO COMPLETO                       301351780   00000000CAPITAL CONSIG SOCIEDADE DE CREDITO DIRE      4008366700011000000000000000000000000000000000000000000000000067
1                   02000000000000AA000000000400500000000141010000000000000000000000000330000 000000     0  77301351650620092500000000330000000000071 140225000020000000000000000000000000000000000000003300000000000000000100000891791370FRANCISCO E. FERREIRA LEANDRO - 1982    ENDERECO COMPLETO                       301351650   00000000CAPITAL CONSIG SOCIEDADE DE CREDITO DIRE      4008366700011000000000000000000000000000000000000000000000000068
1                   02000000000000AA000000000400500000000143890000000000000000000000000299000 000000     0  77301353100620092500000000299000000000071 140225000020000000000000000000000000000000000000002990000000000000000100042946077420FRANCISCO MAGLIANO CARNEIRO - 1963      ENDERECO COMPLETO                       301353100   00000000CAPITAL CONSIG SOCIEDADE DE CREDITO DIRE      4008366700011000000000000000000000000000000000000000000000000069
1                   02000000000000AA000000000400500000000145810000000000000000000000000195000 000000     0  77301351980620092500000000195000000000071 170225000020000000000000000000000000000000000000001950000000000000000100005411515335JOSE CARLOS MARTINS DE SOUSA - 1993     ENDERECO COMPLETO                       301351980   00000000CAPITAL CONSIG SOCIEDADE DE CREDITO DIRE      4008366700011000000000000000000000000000000000000000000000000070
1                   02000000000000AA000000000400500000000133330000000000000000000000000258000 000000     0  77301356540630092500000000258000000000071 170225000020000000000000000000000000000000000000002580000000000000000100011419571320MARIA EDNEUDA ROCHA - 1957              ENDERECO COMPLETO                       301356540   00000000CAPITAL CONSIG SOCIEDADE DE CREDITO DIRE      4008366700011000000000000000000000000000000000000000000000000071
1                   02000000000000AA000000000400500000000135250000000000000000000000000320000 000000     0  77301360400630092500000000320000000000071 170225000020000000000000000000000000000000000000003200000000000000000100021099880378FRANCISCA ALDENISIA DE LIMA - 1962      ENDERECO COMPLETO                       301360400   00000000CAPITAL CONSIG SOCIEDADE DE CREDITO DIRE      4008366700011000000000000000000000000000000000000000000000000072
1                   02000000000000AA000000000400500000000146770000000000000000000000000299000 000000     0  77301356090630092500000000299000000000071 170225000020000000000000000000000000000000000000002990000000000000000100026618761387FRANCISCO TOME RODRIGUES - 1961         ENDERECO COMPLETO                       301356090   00000000CAPITAL CONSIG SOCIEDADE DE CREDITO DIRE      4008366700011000000000000000000000000000000000000000000000000073
1                   02000000000000AA000000000400500000000151570000000000000000000000000212000 000000     0  77301356530630092500000000212000000000071 170225000020000000000000000000000000000000000000002120000000000000000100067201423304DJAIR RODRIGUES SIPRIANO - 1985         ENDERECO COMPLETO                       301356530   00000000CAPITAL CONSIG SOCIEDADE DE CREDITO DIRE      4008366700011000000000000000000000000000000000000000000000000074
1                   02000000000000AA000000000400500000000152530000000000000000000000000190000 000000     0  77301357390630092500000000190000000000071 170225000020000000000000000000000000000000000000001900000000000000000100008017130309MARIANA EDUARDA PESSOA DE SOUSA - 2006  ENDERECO COMPLETO                       301357390   00000000CAPITAL CONSIG SOCIEDADE DE CREDITO DIRE      4008366700011000000000000000000000000000000000000000000000000075
1                   02000000000000AA000000000400500000000134290000000000000000000000000416660 000000     0  77301361500630092500000000416660000000071 180225000020000000000000000000000000000000000000004166600000000000000100011419482300MANOEL TARCISIO DE CASTRO - 1957        ENDERECO COMPLETO                       301361500   00000000CAPITAL CONSIG SOCIEDADE DE CREDITO DIRE      4008366700011000000000000000000000000000000000000000000000000076
1                   02000000000000AA000000000400500000000170870000000000000000000000000404870 000000     0  77301222880720092500000000404870000000071 170225000020000000000000000000000000000000000000004048700000000000000100006133223391EVANDRO HENRIQUE DE SOUZA - 1953        ENDERECO COMPLETO                       301222880   00000000CAPITAL CONSIG SOCIEDADE DE CREDITO DIRE      4008366700011000000000000000000000000000000000000000000000000077
1                   02000000000000AA000000000400500000000169910000000000000000000000000105260 000000     0  77301233030720092500000000105260000000071 180225000020000000000000000000000000000000000000001052600000000000000100070342318349IRLANDA MARIA BATISTA DE SOUZA - 1968   ENDERECO COMPLETO                       301233030   00000000CAPITAL CONSIG SOCIEDADE DE CREDITO DIRE      4008366700011000000000000000000000000000000000000000000000000078
1                   02000000000000AA000000000400500000000171830000000000000000000000000186700 000000     0  77301311260720092500000000186700000000071 170225000020000000000000000000000000000000000000001867000000000000000100002784877426ALEX SANDRO MIRTIS N. AZEVEDO - 1979    ENDERECO COMPLETO                       301311260   00000000CAPITAL CONSIG SOCIEDADE DE CREDITO DIRE      4008366700011000000000000000000000000000000000000000000000000079
1                   02000000000000AA000000000400500000000167990000000000000000000000000270720 000000     0  77301312340720092500000000270720000000071 170225000020000000000000000000000000000000000000002707200000000000000100057465843391FRANCISCO ORLANDO VIDAL DA COSTA - 1974 ENDERECO COMPLETO                       301312340   00000000CAPITAL CONSIG SOCIEDADE DE CREDITO DIRE      4008366700011000000000000000000000000000000000000000000000000080
1                   02000000000000AA000000000400500000000168950000000000000000000000000162440 000000     0  77301322930720092500000000162440000000071 170225000020000000000000000000000000000000000000001624400000000000000100011025140397MIRIAN QUARIGUASI DA COSTA - 1956       ENDERECO COMPLETO                       301322930   00000000CAPITAL CONSIG SOCIEDADE DE CREDITO DIRE      4008366700011000000000000000000000000000000000000000000000000081
1                   02000000000000AA000000000400500000000172800000000000000000000000000223130 000000     0  77301315270820112500000000223130000000071 170225000020000000000000000000000000000000000000002231300000000000000100001398274399ANTONIO NATANAEL PEREIRA DA COSTA - 1985ENDERECO COMPLETO                       301315270   00000000CAPITAL CONSIG SOCIEDADE DE CREDITO DIRE      4008366700011000000000000000000000000000000000000000000000000082
1                   02000000000000AA000000000400500000000178420000000000000000000000000131990 000000     0  77301380290620092500000000131990000000071 210225000020000000000000000000000000000000000000001319900000000000000100041835760406MARIA ROSANGELA C DE SIQUEIRA - 1965    ENDERECO COMPLETO                       301380290   00000000CAPITAL CONSIG SOCIEDADE DE CREDITO DIRE      4008366700011000000000000000000000000000000000000000000000000083
1                   02000000000000AA000000000400500000000179380000000000000000000000000220010 000000     0  77301385460620092500000000220010000000071 240225000020000000000000000000000000000000000000002200100000000000000100020389272434ROBERVAL DA COSTA SOUZA - 1958          ENDERECO COMPLETO                       301385460   00000000CAPITAL CONSIG SOCIEDADE DE CREDITO DIRE      4008366700011000000000000000000000000000000000000000000000000084
1                   02000000000000AA000000000400500000000180340000000000000000000000000067210 000000     0  77301386180620092500000000067210000000071 240225000020000000000000000000000000000000000000000672100000000000000100011376821400DEOCLECIANO SILVA DA ROCHA - 1956       ENDERECO COMPLETO                       301386180   00000000CAPITAL CONSIG SOCIEDADE DE CREDITO DIRE      4008366700011000000000000000000000000000000000000000000000000085
1                   02000000000000AA000000000400500000000177820000000000000000000000000040120 000000     0  77301378680620092500000000040120000000071 210225000020000000000000000000000000000000000000000401200000000000000100073914495472MOISES RAMO ALVES BARBOSA - 1970        ENDERECO COMPLETO                       301378680   00000000CAPITAL CONSIG SOCIEDADE DE CREDITO DIRE      4008366700011000000000000000000000000000000000000000000000000086
1                   02000000000000AA000000000400500000000187800000000000000000000000000158100 000000     0  77301377980630092500000000158100000000071 210225000020000000000000000000000000000000000000001581000000000000000100002769189328FRANCISCA CELIA G. DE OLIVEIRA L - 1979 ENDERECO COMPLETO                       301377980   00000000CAPITAL CONSIG SOCIEDADE DE CREDITO DIRE      4008366700011000000000000000000000000000000000000000000000000087
1                   02000000000000AA000000000400500000000192360000000000000000000000000129950 000000     0  77301380290630092500000000129950000000071 240225000020000000000000000000000000000000000000001299500000000000000100032532342315RITA DE CASSIA MOURA - 1968             ENDERECO COMPLETO                       301380290   00000000CAPITAL CONSIG SOCIEDADE DE CREDITO DIRE      4008366700011000000000000000000000000000000000000000000000000088
1                   02000000000000AA000000000400500000000201480000000000000000000000000086210 000000     0  77301380480630092500000000086210000000071 210225000020000000000000000000000000000000000000000862100000000000000100076479188349MARIA MARINIUCE SILVA - 1968            ENDERECO COMPLETO                       301380480   00000000CAPITAL CONSIG SOCIEDADE DE CREDITO DIRE      4008366700011000000000000000000000000000000000000000000000000089
1                   02000000000000AA000000000400500000000185880000000000000000000000000276770 000000     0  77301384070630092500000000276770000000071 240225000020000000000000000000000000000000000000002767700000000000000100038338696315UERLEN RODRIGUES DE FARIAS - 1971       ENDERECO COMPLETO                       301384070   00000000CAPITAL CONSIG SOCIEDADE DE CREDITO DIRE      4008366700011000000000000000000000000000000000000000000000000090
1                   02000000000000AA000000000400500000000186860000000000000000000000000113190 000000     0  77301382620830112500000000113190000000071 240225000020000000000000000000000000000000000000001121700000000000000100026702029349JOSE MARCELO PINTO FERNANDES - 1966     ENDERECO COMPLETO                       301382620   00000000CAPITAL CONSIG SOCIEDADE DE CREDITO DIRE      4008366700011000000000000000000000000000000000000000000000000091
1                   02000000000000AA000000000400500000000191400000000000000000000000000179000 000000     0  77301382750630092500000000179000000000071 240225000020000000000000000000000000000000000000001790000000000000000100002160671380PAULO AUGUSTO AMARO DA SILVA - 1988     ENDERECO COMPLETO                       301382750   00000000CAPITAL CONSIG SOCIEDADE DE CREDITO DIRE      4008366700011000000000000000000000000000000000000000000000000092
1                   02000000000000AA000000000400500000000212040000000000000000000000000346390 000000     0  77301384420630092500000000346390000000071 240225000020000000000000000000000000000000000000003463900000000000000100011860944353ASMINDA MARIA T. AMORA DE SOU - 1956    ENDERECO COMPLETO                       301384420   00000000CAPITAL CONSIG SOCIEDADE DE CREDITO DIRE      4008366700011000000000000000000000000000000000000000000000000093
1                   02000000000000AA000000000400500000000208920000000000000000000000000185640 000000     0  77301394920630092500000000185640000000071 250225000020000000000000000000000000000000000000001856400000000000000100044367139387FRANCISCA ISABEL UMBELINO SILVA - 1966  ENDERECO COMPLETO                       301394920   00000000CAPITAL CONSIG SOCIEDADE DE CREDITO DIRE      4008366700011000000000000000000000000000000000000000000000000094
1                   02000000000000AA000000000400500000000229080000000000000000000000000138390 000000     0  77301395340630092500000000138390000000071 250225000020000000000000000000000000000000000000001383900000000000000100006079156334JOSE NOGUEIRA DE SOUZA - 1954           ENDERECO COMPLETO                       301395340   00000000CAPITAL CONSIG SOCIEDADE DE CREDITO DIRE      4008366700011000000000000000000000000000000000000000000000000095
1                   02000000000000AA000000000400500000000218520000000000000000000000000125000 000000     0  77301395510620092500000000125000000000071 250225000020000000000000000000000000000000000000001250000000000000000100001948522969FABIANA DE FATIMA HENISH - 1975         ENDERECO COMPLETO                       301395510   00000000CAPITAL CONSIG SOCIEDADE DE CREDITO DIRE      4008366700011000000000000000000000000000000000000000000000000096
1                   02000000000000AA000000000400500000000223320000000000000000000000000094630 000000     0  77301396630620092500000000094630000000071 260225000020000000000000000000000000000000000000000946300000000000000100096920971887CARLOS ROBERTO DE OLIVEIRA - 1959       ENDERECO COMPLETO                       301396630   00000000CAPITAL CONSIG SOCIEDADE DE CREDITO DIRE      4008366700011000000000000000000000000000000000000000000000000097
1                   02000000000000AA000000000400500000000226200000000000000000000000000569200 000000     0  77201379320620092500000000569200000000071 210225000020000000000000000000000000000000000000005692000000000000000100006759716833ROCI FELIPPE BAPTISTA - 1966            ENDERECO COMPLETO                       201379320   00000000CAPITAL CONSIG SOCIEDADE DE CREDITO DIRE      4008366700011000000000000000000000000000000000000000000000000098
1                   02000000000000AA000000000400500000000234120000000000000000000000000058010 000000     0  77201384400620092500000000058010000000071 240225000020000000000000000000000000000000000000000580100000000000000100011046160761PATRICIA BARREIRA LOUREIRO G. - 1985    ENDERECO COMPLETO                       201384400   00000000CAPITAL CONSIG SOCIEDADE DE CREDITO DIRE      4008366700011000000000000000000000000000000000000000000000000099
1                   02000000000000AA000000000400500000000224280000000000000000000000000281160 000000     0  77201390810620092500000000281160000000071 250225000020000000000000000000000000000000000000002811600000000000000100039574956873KAROLINE DIAS MONTEIRO - 1991           ENDERECO COMPLETO                       201390810   00000000CAPITAL CONSIG SOCIEDADE DE CREDITO DIRE      4008366700011000000000000000000000000000000000000000000000000100
1                   02000000000000AA000000000400500000000225260000000000000000000000000319130 000000     0  77201384850820112500000000319130000000071 240225000020000000000000000000000000000000000000003191300000000000000100006760137833LAZARO APARECIDO GIL DE TOLEDO - 1966   ENDERECO COMPLETO                       201384850   00000000CAPITAL CONSIG SOCIEDADE DE CREDITO DIRE      4008366700011000000000000000000000000000000000000000000000000101
1                   02000000000000AA000000000400500000000227160000000000000000000000000331250 000000     0  77201385030620092500000000331250000000071 240225000020000000000000000000000000000000000000003312500000000000000100025152579847SILMARA RODRIGUES PINTO - 1974          ENDERECO COMPLETO                       201385030   00000000CAPITAL CONSIG SOCIEDADE DE CREDITO DIRE      4008366700011000000000000000000000000000000000000000000000000102
1                   02000000000000AA000000000400500000000200260000000000000000000000000123000 000000     0  77301389920430072500000000123000000000071 250225000020000000000000000000000000000000000000001230000000000000000100071261630378RAIMUNDA B. RODRIGES DA SILVA - 1962    ENDERECO COMPLETO                       301389920   00000000CAPITAL CONSIG SOCIEDADE DE CREDITO DIRE      4008366700011000000000000000000000000000000000000000000000000103
1                   02000000000000AA000000000400500000000207700000000000000000000000000088200 000000     0  77301390090430072500000000088200000000071 250225000020000000000000000000000000000000000000000882000000000000000100021096236320MARIA MEDIANEIRA TERTO DO CARMO - 1962  ENDERECO COMPLETO                       301390090   00000000CAPITAL CONSIG SOCIEDADE DE CREDITO DIRE      4008366700011000000000000000000000000000000000000000000000000104
1                   02000000000000AA000000000400500000000221400000000000000000000000000331000 000000     0  77301390750620092500000000331000000000071 250225000020000000000000000000000000000000000000003310000000000000000100007153400850ADRIANA PAULA OLIVEIRA SSNTOS - 1970    ENDERECO COMPLETO                       301390750   00000000CAPITAL CONSIG SOCIEDADE DE CREDITO DIRE      4008366700011000000000000000000000000000000000000000000000000105
1                   02000000000000AA000000000400500000000203640000000000000000000000000191270 000000     0  77301391990630092500000000191270000000071 250225000020000000000000000000000000000000000000001912700000000000000100001763165310JOAO FELIPE DOS SANTOS LIMA - 1989      ENDERECO COMPLETO                       301391990   00000000CAPITAL CONSIG SOCIEDADE DE CREDITO DIRE      4008366700011000000000000000000000000000000000000000000000000106
1                   02000000000000AA000000000400500000000206760000000000000000000000000150000 000000     0  77301390800630092500000000150000000000071 250225000020000000000000000000000000000000000000001500000000000000000100042291399349CICERO MARCONDES DE ANDRADE NUNES - 1970ENDERECO COMPLETO                       301390800   00000000CAPITAL CONSIG SOCIEDADE DE CREDITO DIRE      4008366700011000000000000000000000000000000000000000000000000107
1                   02000000000000AA000000000400500000000214440000000000000000000000000326000 000000     0  77301391060630092500000000326000000000071 250225000020000000000000000000000000000000000000003260000000000000000100007289251334OSLIMARY VILAR GONDIM - 1953            ENDERECO COMPLETO                       301391060   00000000CAPITAL CONSIG SOCIEDADE DE CREDITO DIRE      4008366700011000000000000000000000000000000000000000000000000108
1                   02000000000000AA000000000400500000000220440000000000000000000000000035810 000000     0  77301391440620092500000000035810000000071 250225000020000000000000000000000000000000000000000358100000000000000100014649845491EDUARDO MORAIS DA SILVA FILHO - 1956    ENDERECO COMPLETO                       301391440   00000000CAPITAL CONSIG SOCIEDADE DE CREDITO DIRE      4008366700011000000000000000000000000000000000000000000000000109
1                   02000000000000AA000000000400500000000222360000000000000000000000000230000 000000     0  77301392420620092500000000230000000000071 250225000020000000000000000000000000000000000000002300000000000000000100018701509888KLEUBER ROBERTO DE ARAUJO - 1975        ENDERECO COMPLETO                       301392420   00000000CAPITAL CONSIG SOCIEDADE DE CREDITO DIRE      4008366700011000000000000000000000000000000000000000000000000110
1                   02000000000000AA000000000400500000000199060000000000000000000000000173200 000000     0  77301392880430072500000000173200000000071 250225000020000000000000000000000000000000000000001732000000000000000100044367058387SOLANGE SOUSA FRANCA RODRIGUES - 1971   ENDERECO COMPLETO                       301392880   00000000CAPITAL CONSIG SOCIEDADE DE CREDITO DIRE      4008366700011000000000000000000000000000000000000000000000000111
1                   02000000000000AA000000000400500000000202420000000000000000000000000150000 000000     0  77301392510430072500000000150000000000071 250225000020000000000000000000000000000000000000001500000000000000000100062183044349OSANA PEREIRA DA SILVA - 1975           ENDERECO COMPLETO                       301392510   00000000CAPITAL CONSIG SOCIEDADE DE CREDITO DIRE      4008366700011000000000000000000000000000000000000000000000000112
1                   02000000000000AA000000000400500000000204570000000000000000000000000173430 000000     0  77301392510330062500000000173430000000071 250225000020000000000000000000000000000000000000001734300000000000000100046897852368JOSE JAIR DA SILVA PEREIRA - 1971       ENDERECO COMPLETO                       301392510   00000000CAPITAL CONSIG SOCIEDADE DE CREDITO DIRE      4008366700011000000000000000000000000000000000000000000000000113
1                   02000000000000AA000000000400500000000236010000000000000000000000000339630 000000     0  77301384180330062500000000339630000000071 240225000020000000000000000000000000000000000000003396300000000000000100017262607391MARIA DE FATIMA SILVA DE SA B. - 1957   ENDERECO COMPLETO                       301384180   00000000CAPITAL CONSIG SOCIEDADE DE CREDITO DIRE      4008366700011000000000000000000000000000000000000000000000000114
1                   02000000000000AA000000000400500000000193320000000000000000000000000229200 000000     0  77301386200630092500000000229200000000071 240225000020000000000000000000000000000000000000002292000000000000000100016613120391MOISES NASCIMENTO DA SILVA - 1957       ENDERECO COMPLETO                       301386200   00000000CAPITAL CONSIG SOCIEDADE DE CREDITO DIRE      4008366700011000000000000000000000000000000000000000000000000115
1                   02000000000000AA000000000400500000000195240000000000000000000000000226480 000000     0  77301387250630092500000000226480000000071 240225000020000000000000000000000000000000000000002264800000000000000100036939617353MARIA AUXILIADORA DOS S. COSTA - 1955   ENDERECO COMPLETO                       301387250   00000000CAPITAL CONSIG SOCIEDADE DE CREDITO DIRE      4008366700011000000000000000000000000000000000000000000000000116
1                   02000000000000AA000000000400500000000211080000000000000000000000000237500 000000     0  77301385510630092500000000237500000000071 250225000020000000000000000000000000000000000000002375000000000000000100010740260391LUCIANO ALVES CRUZ - 1954               ENDERECO COMPLETO                       301385510   00000000CAPITAL CONSIG SOCIEDADE DE CREDITO DIRE      4008366700011000000000000000000000000000000000000000000000000117
1                   02000000000000AA000000000400500000000237210000000000000000000000000068310 000000     0  77301386850330062500000000068310000000071 240225000020000000000000000000000000000000000000000683100000000000000100034916920325ELIENE ALVES CIRINO                     ENDERECO COMPLETO                       301386850   00000000CAPITAL CONSIG SOCIEDADE DE CREDITO DIRE      4008366700011000000000000000000000000000000000000000000000000118
1                   02000000000000AA000000000400500000000194280000000000000000000000000129950 000000     0  77301389660630092500000000129950000000071 240225000020000000000000000000000000000000000000001299500000000000000100098301837349MARIA DO SOCORRO M. DE A. FARIAS - 1971 ENDERECO COMPLETO                       301389660   00000000CAPITAL CONSIG SOCIEDADE DE CREDITO DIRE      4008366700011000000000000000000000000000000000000000000000000119
1                   02000000000000AA000000000400500000000198120000000000000000000000000407700 000000     0  77301389760630092500000000407700000000071 250225000020000000000000000000000000000000000000004077000000000000000100031922139300IZABEL CRISTINA GONCALVES PONTES - 1963 ENDERECO COMPLETO                       301389760   00000000CAPITAL CONSIG SOCIEDADE DE CREDITO DIRE      4008366700011000000000000000000000000000000000000000000000000120
1                   02000000000000AA000000000400500000000210120000000000000000000000000077000 000000     0  77301388510630092500000000077000000000071 240225000020000000000000000000000000000000000000000770000000000000000100066930138304MARIA CAMILA SILVA DE LIMA - 1983       ENDERECO COMPLETO                       301388510   00000000CAPITAL CONSIG SOCIEDADE DE CREDITO DIRE      4008366700011000000000000000000000000000000000000000000000000121
1                   02000000000000AA000000000400500000000213210000000000000000000000000081260 000000     0  77301387260330062500000000081260000000071 240225000020000000000000000000000000000000000000000812600000000000000100010754385353MARIA DE FATIMA BRAGA COSTA - 1954      ENDERECO COMPLETO                       301387260   00000000CAPITAL CONSIG SOCIEDADE DE CREDITO DIRE      4008366700011000000000000000000000000000000000000000000000000122
1                   02000000000000AA000000000400500000000219480000000000000000000000000373100 000000     0  77301387380620092500000000373100000000071 240225000020000000000000000000000000000000000000003731000000000000000100058407090930DAVID LUIZ RIBEIRO - 1966               ENDERECO COMPLETO                       301387380   00000000CAPITAL CONSIG SOCIEDADE DE CREDITO DIRE      4008366700011000000000000000000000000000000000000000000000000123
1                   02000000000000AA000000000400500000000196200000000000000000000000000374230 000000     0  77301389800630092500000000374230000000071 250225000020000000000000000000000000000000000000003742300000000000000100026352826334ANA PAULA ARRAES CUNHA - 1963           ENDERECO COMPLETO                       301389800   00000000CAPITAL CONSIG SOCIEDADE DE CREDITO DIRE      4008366700011000000000000000000000000000000000000000000000000124
1                   02000000000000AA000000000400500000000235080000000000000000000000000257000 000000     0  77201391050620092500000000257000000000071 250225000020000000000000000000000000000000000000002570000000000000000100002852564750MARCIA MARCIAL GOMES RIBEIRO - 1973     ENDERECO COMPLETO                       201391050   00000000CAPITAL CONSIG SOCIEDADE DE CREDITO DIRE      4008366700011000000000000000000000000000000000000000000000000125
1                   02000000000000AA000000000400500000000181320000000000000000000000000205740 000000     0  77301228850620092500000000205740000000071 240225000020000000000000000000000000000000000000002057400000000000000100023185295315RAIMUNDA CANDIDA DE MOURA NUNES - 1959  ENDERECO COMPLETO                       301228850   00000000CAPITAL CONSIG SOCIEDADE DE CREDITO DIRE      4008366700011000000000000000000000000000000000000000000000000126
1                   02000000000000AA000000000400500000000228120000000000000000000000000281160 000000     0  77201391240620092500000000281160000000071 250225000020000000000000000000000000000000000000002811600000000000000100032960763874DEIDICLEIA DOS SANTOS DANTAS - 1983     ENDERECO COMPLETO                       201391240   00000000CAPITAL CONSIG SOCIEDADE DE CREDITO DIRE      4008366700011000000000000000000000000000000000000000000000000127
1                   02000000000000AA000000000400500000000231240000000000000000000000000219940 000000     0  77201392330620092500000000219940000000071 250225000020000000000000000000000000000000000000002199400000000000000100026755749885ANA PAULA TEIXEIRA DA SILVA - 1977      ENDERECO COMPLETO                       201392330   00000000CAPITAL CONSIG SOCIEDADE DE CREDITO DIRE      4008366700011000000000000000000000000000000000000000000000000128
1                   02000000000000AA000000000400500000000232200000000000000000000000000276610 000000     0  77201393650620092500000000276610000000071 250225000020000000000000000000000000000000000000002766100000000000000100043393148893VICTORIA FRANCA - 1996                  ENDERECO COMPLETO                       201393650   00000000CAPITAL CONSIG SOCIEDADE DE CREDITO DIRE      4008366700011000000000000000000000000000000000000000000000000129
1                   02000000000000AA000000000400500000000233160000000000000000000000000246700 000000     0  77201392420620092500000000246700000000071 250225000020000000000000000000000000000000000000002467000000000000000100010709473770DANILO FERREIRA JUNIOR - 1984           ENDERECO COMPLETO                       201392420   00000000CAPITAL CONSIG SOCIEDADE DE CREDITO DIRE      4008366700011000000000000000000000000000000000000000000000000130
1                   02000000000000AA000000000400500000000182250000000000000000000000000107200 000000     0  77301374760330062500000000107200000000071 210225000020000000000000000000000000000000000000001072000000000000000100002395556351MARIA ALICE DA SILVA ARAUJO - 1962      ENDERECO COMPLETO                       301374760   00000000CAPITAL CONSIG SOCIEDADE DE CREDITO DIRE      4008366700011000000000000000000000000000000000000000000000000131
1                   02000000000000AA000000000400500000000183450000000000000000000000000268970 000000     0  77301377550330062500000000268970000000071 210225000020000000000000000000000000000000000000002689700000000000000100068966091334JERONIMO ALVES RUFINO JUNIOR - 1975     ENDERECO COMPLETO                       301377550   00000000CAPITAL CONSIG SOCIEDADE DE CREDITO DIRE      4008366700011000000000000000000000000000000000000000000000000132
1                   02000000000000AA000000000400500000000197170000000000000000000000000275250 000000     0  77301325670720092500000000275250000000071 190225000020000000000000000000000000000000000000002752500000000000000100041114256315CICERO ALVES DO NASCIMENTO JUNIOR - 1966ENDERECO COMPLETO                       301325670   00000000CAPITAL CONSIG SOCIEDADE DE CREDITO DIRE      4008366700011000000000000000000000000000000000000000000000000133
1                   02000000000000AA000000000400500000000215410000000000000000000000000079670 000000     0  77301286380720092500000000079670000000071 190225000020000000000000000000000000000000000000000796700000000000000100074575449334FERNANDA MARIA DE LIMA ROCHA - 1972     ENDERECO COMPLETO                       301286380   00000000CAPITAL CONSIG SOCIEDADE DE CREDITO DIRE      4008366700011000000000000000000000000000000000000000000000000134
1                   02000000000000AA000000000400500000000216360000000000000000000000000136830 000000     0  77301318390620092500000000136830000000071 250225000020000000000000000000000000000000000000001368300000000000000100051265265372SANDRA LUCIA DO NASCIMENTO - 1970       ENDERECO COMPLETO                       301318390   00000000CAPITAL CONSIG SOCIEDADE DE CREDITO DIRE      4008366700011000000000000000000000000000000000000000000000000135
1                   02000000000000AA000000000400500000000184650000000000000000000000000257730 000000     0  77301379670330062500000000257730000000071 210225000020000000000000000000000000000000000000002577300000000000000100040841995320JOSE AIRTON C. DOS SANTOS - 1970        ENDERECO COMPLETO                       301379670   00000000CAPITAL CONSIG SOCIEDADE DE CREDITO DIRE      4008366700011000000000000000000000000000000000000000000000000136
1                   02000000000000AA000000000400500000000280350000000000000000000000000895740 000000     0  77201396130620092500000000895740000000071 260225000020000000000000000000000000000000000000008957400000000000000100089400216734ODAYR ANTONIO BORTOLAZZO - 1962         ENDERECO COMPLETO                       201396130   00000000CAPITAL CONSIG SOCIEDADE DE CREDITO DIRE      4008366700011000000000000000000000000000000000000000000000000137
1                   02000000000000AA000000000400500000000277470000000000000000000000000313430 000000     0  77201396460620092500000000313430000000071 260225000020000000000000000000000000000000000000003134300000000000000100029513999874DANIELA DONIZETE R. YAMANAKA - 1981     ENDERECO COMPLETO                       201396460   00000000CAPITAL CONSIG SOCIEDADE DE CREDITO DIRE      4008366700011000000000000000000000000000000000000000000000000138
1                   02000000000000AA000000000400500000000282270000000000000000000000000240050 000000     0  77201396550620092500000000240050000000071 260225000020000000000000000000000000000000000000002400500000000000000100040801787866DAMARIS DE OLIVEIRA RIBEIRO - 1992      ENDERECO COMPLETO                       201396550   00000000CAPITAL CONSIG SOCIEDADE DE CREDITO DIRE      4008366700011000000000000000000000000000000000000000000000000139
1                   02000000000000AA000000000400500000000283230000000000000000000000000180000 000000     0  77201399100620092500000000180000000000071 260225000020000000000000000000000000000000000000001800000000000000000100042210782864LETICIA FERNANDES DE SOUZA - 1995       ENDERECO COMPLETO                       201399100   00000000CAPITAL CONSIG SOCIEDADE DE CREDITO DIRE      4008366700011000000000000000000000000000000000000000000000000140
1                   02000000000000AA000000000400500000000284190000000000000000000000000241700 000000     0  77201398640620092500000000241700000000071 260225000020000000000000000000000000000000000000002417000000000000000100030564487864VANESSA D DE ANDRADE LAMATRIZ - 1979    ENDERECO COMPLETO                       201398640   00000000CAPITAL CONSIG SOCIEDADE DE CREDITO DIRE      4008366700011000000000000000000000000000000000000000000000000141
1                   02000000000000AA000000000400500000000238470000000000000000000000000220280 000000     0  77301352840630092500000000220280000000071 200225000020000000000000000000000000000000000000002202800000000000000100064222608300FRANCISCO LUCIANO R. DA SILVA - 1982    ENDERECO COMPLETO                       301352840   00000000CAPITAL CONSIG SOCIEDADE DE CREDITO DIRE      4008366700011000000000000000000000000000000000000000000000000142
1                   02000000000000AA000000000400500000000246640000000000000000000000000052000 000000     0  77301325630720092500000000052000000000071 070225000020000000000000000000000000000000000000000520000000000000000100028362551372FRANCISCO NOGUEIRA DE OLIVEIRA - 1952   ENDERECO COMPLETO                       301325630   00000000CAPITAL CONSIG SOCIEDADE DE CREDITO DIRE      4008366700011000000000000000000000000000000000000000000000000143
1                   02000000000000AA000000000400500000000281310000000000000000000000000318440 000000     0  77201402610620092500000000318440000000071 270225000020000000000000000000000000000000000000003184400000000000000100026494675840KATIA SILENE DE OLIVEIRA BARROS - 1979  ENDERECO COMPLETO                       201402610   00000000CAPITAL CONSIG SOCIEDADE DE CREDITO DIRE      4008366700011000000000000000000000000000000000000000000000000144
1                   02000000000000AA000000000400500000000291870000000000000000000000000191860 000000     0  77301353630630092500000000191860000000071 260225000020000000000000000000000000000000000000001918600000000000000100062569111309CAUE BRENO DE MELO - 2001               ENDERECO COMPLETO                       301353630   00000000CAPITAL CONSIG SOCIEDADE DE CREDITO DIRE      4008366700011000000000000000000000000000000000000000000000000145
1                   02000000000000AA000000000400500000000292830000000000000000000000001215000 000000     0  77301368660630092500000001215000000000071 190225000020000000000000000000000000000000000000012150000000000000000100035922010344ADRIANA OLIVEIRA NOGUEIRA - 1966        ENDERECO COMPLETO                       301368660   00000000CAPITAL CONSIG SOCIEDADE DE CREDITO DIRE      4008366700011000000000000000000000000000000000000000000000000146
1                   02000000000000AA000000000400500000000251670000000000000000000000000097380 000000     0  77301394820630092500000000097380000000071 250225000020000000000000000000000000000000000000000973800000000000000100046088512334ANA NEIVA MARTINS SIEBRA - 1969         ENDERECO COMPLETO                       301394820   00000000CAPITAL CONSIG SOCIEDADE DE CREDITO DIRE      4008366700011000000000000000000000000000000000000000000000000147
1                   02000000000000AA000000000400500000000259830000000000000000000000000355000 000000     0  77301389330620092500000000355000000000071 250225000020000000000000000000000000000000000000003550000000000000000100004333843871CORINA APARECIDA ALVES - 1956           ENDERECO COMPLETO                       301389330   00000000CAPITAL CONSIG SOCIEDADE DE CREDITO DIRE      4008366700011000000000000000000000000000000000000000000000000148
1                   02000000000000AA000000000400500000000272670000000000000000000000000139370 000000     0  77201378610620092500000000139370000000071 210225000020000000000000000000000000000000000000001393700000000000000100071564055191FABIANE OLIVEIRA SANTOS DIAS - 1980     ENDERECO COMPLETO                       201378610   00000000CAPITAL CONSIG SOCIEDADE DE CREDITO DIRE      4008366700011000000000000000000000000000000000000000000000000149
1                   02000000000000AA000000000400500000000275550000000000000000000000000319290 000000     0  77201390990620092500000000319290000000071 250225000020000000000000000000000000000000000000003192900000000000000100022473692866GEISE TERTULIANO DA SILVA - 1978        ENDERECO COMPLETO                       201390990   00000000CAPITAL CONSIG SOCIEDADE DE CREDITO DIRE      4008366700011000000000000000000000000000000000000000000000000150
1                   02000000000000AA000000000400500000000276510000000000000000000000000100000 000000     0  77201390330620092500000000100000000000071 250225000020000000000000000000000000000000000000001000000000000000000100011528577892RONALDO DE OLIVEIRA TEODORO - 1967      ENDERECO COMPLETO                       201390330   00000000CAPITAL CONSIG SOCIEDADE DE CREDITO DIRE      4008366700011000000000000000000000000000000000000000000000000151
1                   02000000000000AA000000000400500000000286110000000000000000000000000171200 000000     0  77201380380620092500000000171200000000071 220225000020000000000000000000000000000000000000001712000000000000000100096707330730ANTONIO ALEXANDRE DOS SANTOS NETO - 1967ENDERECO COMPLETO                       201380380   00000000CAPITAL CONSIG SOCIEDADE DE CREDITO DIRE      4008366700011000000000000000000000000000000000000000000000000152
1                   02000000000000AA000000000400500000000273630000000000000000000000000361430 000000     0  77201392120620092500000000361430000000071 250225000020000000000000000000000000000000000000003614300000000000000100001324738103PRISCILLA PAOLLA PAGOTTO SILVA - 1985   ENDERECO COMPLETO                       201392120   00000000CAPITAL CONSIG SOCIEDADE DE CREDITO DIRE      4008366700011000000000000000000000000000000000000000000000000153
1                   02000000000000AA000000000400500000000274590000000000000000000000000350380 000000     0  77201394130620092500000000350380000000071 250225000020000000000000000000000000000000000000003503800000000000000100025014314805VIVIANE APARECIDA DETONI - 1976         ENDERECO COMPLETO                       201394130   00000000CAPITAL CONSIG SOCIEDADE DE CREDITO DIRE      4008366700011000000000000000000000000000000000000000000000000154
1                   02000000000000AA000000000400500000000278430000000000000000000000000315020 000000     0  77201396390620092500000000315020000000071 260225000020000000000000000000000000000000000000003150200000000000000100035845113806TIAGO VIEIRA NOVAES - 1984              ENDERECO COMPLETO                       201396390   00000000CAPITAL CONSIG SOCIEDADE DE CREDITO DIRE      4008366700011000000000000000000000000000000000000000000000000155
1                   02000000000000AA000000000400500000000279390000000000000000000000000301410 000000     0  77201396250620092500000000301410000000071 260225000020000000000000000000000000000000000000003014100000000000000100005208074800LUCAS DE OLIVEIRA ALICRIM - 1963        ENDERECO COMPLETO                       201396250   00000000CAPITAL CONSIG SOCIEDADE DE CREDITO DIRE      4008366700011000000000000000000000000000000000000000000000000156
1                   02000000000000AA000000000400500000000271710000000000000000000000000068830 000000     0  77301398460620092500000000068830000000071 260225000020000000000000000000000000000000000000000688300000000000000100004536705988JOSE ROBERTO DIAS - 1981                ENDERECO COMPLETO                       301398460   00000000CAPITAL CONSIG SOCIEDADE DE CREDITO DIRE      4008366700011000000000000000000000000000000000000000000000000157
1                   02000000000000AA000000000400500000000240600000000000000000000000000147000 000000     0  77301399150330062500000000147000000000071 260225000020000000000000000000000000000000000000001470000000000000000100022302913353LUCIA CELIA FREIRE DE FARIAS - 1960     ENDERECO COMPLETO                       301399150   00000000CAPITAL CONSIG SOCIEDADE DE CREDITO DIRE      4008366700011000000000000000000000000000000000000000000000000158
1                   02000000000000AA000000000400500000000241800000000000000000000000000150000 000000     0  77301399060330062500000000150000000000071 260225000020000000000000000000000000000000000000001500000000000000000100024476528368JOSE AIRTON BARBOSA DA SILVA - 1963     ENDERECO COMPLETO                       301399060   00000000CAPITAL CONSIG SOCIEDADE DE CREDITO DIRE      4008366700011000000000000000000000000000000000000000000000000159
1                   02000000000000AA000000000400500000000258870000000000000000000000000642820 000000     0  77301398840620092500000000642820000000071 260225000020000000000000000000000000000000000000006428200000000000000100033502520879WAGNER RENATO DA SILVA LEITE - 1985     ENDERECO COMPLETO                       301398840   00000000CAPITAL CONSIG SOCIEDADE DE CREDITO DIRE      4008366700011000000000000000000000000000000000000000000000000160
1                   02000000000000AA000000000400500000000260790000000000000000000000000042000 000000     0  77301398740620092500000000042000000000071 260225000020000000000000000000000000000000000000000420000000000000000100030854776400VALMIR ALVES DA SILVA - 1964            ENDERECO COMPLETO                       301398740   00000000CAPITAL CONSIG SOCIEDADE DE CREDITO DIRE      4008366700011000000000000000000000000000000000000000000000000161
1                   02000000000000AA000000000400500000000290640000000000000000000000000314000 000000     0  77301398910330062500000000314000000000071 260225000020000000000000000000000000000000000000003140000000000000000100011554487315LIS DE MARIA ESTEVAM SAMPAIO - 1956     ENDERECO COMPLETO                       301398910   00000000CAPITAL CONSIG SOCIEDADE DE CREDITO DIRE      4008366700011000000000000000000000000000000000000000000000000162
1                   02000000000000AA000000000400500000000239400000000000000000000000000061210 000000     0  77301399520330062500000000061210000000071 270225000020000000000000000000000000000000000000000612100000000000000100016831047300MARIA DE FATIMA DO N ARAUJO - 1957      ENDERECO COMPLETO                       301399520   00000000CAPITAL CONSIG SOCIEDADE DE CREDITO DIRE      4008366700011000000000000000000000000000000000000000000000000163
1                   02000000000000AA000000000400500000000261390000000000000000000000000058960 000000     0  77301401350620092500000000058960000000071 260225000020000000000000000000000000000000000000000589600000000000000100037968815487MARIA LACERDA DINIZ ESTRELA - 1963      ENDERECO COMPLETO                       301401350   00000000CAPITAL CONSIG SOCIEDADE DE CREDITO DIRE      4008366700011000000000000000000000000000000000000000000000000164
1                   02000000000000AA000000000400500000000262350000000000000000000000000090180 000000     0  77301400230620092500000000090180000000071 260225000020000000000000000000000000000000000000000901800000000000000100052714217400JAIR BATISTA VIEIRA - 1966              ENDERECO COMPLETO                       301400230   00000000CAPITAL CONSIG SOCIEDADE DE CREDITO DIRE      4008366700011000000000000000000000000000000000000000000000000165
1                   02000000000000AA000000000400500000000263790000000000000000000000000039040 000000     0  77301402080620092500000000039040000000071 260225000020000000000000000000000000000000000000000390400000000000000100098296736420DENIS PEREIRA JANUARIO - 1976           ENDERECO COMPLETO                       301402080   00000000CAPITAL CONSIG SOCIEDADE DE CREDITO DIRE      4008366700011000000000000000000000000000000000000000000000000166
1                   02000000000000AA000000000400500000000270750000000000000000000000000086700 000000     0  77301401650620092500000000086700000000071 260225000020000000000000000000000000000000000000000867000000000000000100039788946968JOSE APARECIDO PEREIRA - 1959           ENDERECO COMPLETO                       301401650   00000000CAPITAL CONSIG SOCIEDADE DE CREDITO DIRE      4008366700011000000000000000000000000000000000000000000000000167
1                   02000000000000AA000000000400500000000263310000000000000000000000000107670 000000     0  77301402100620092500000000107670000000071 260225000020000000000000000000000000000000000000001076700000000000000100002390033490RANNIERI VIEIRA AMORIM - 1978           ENDERECO COMPLETO                       301402100   00000000CAPITAL CONSIG SOCIEDADE DE CREDITO DIRE      4008366700011000000000000000000000000000000000000000000000000168
1                   02000000000000AA000000000400500000000270030000000000000000000000000141080 000000     0  77301394030620092500000000141080000000071 250225000020000000000000000000000000000000000000001410800000000000000100003992839435WAGNER RODRIGUES DO NASCIMENTO - 1980   ENDERECO COMPLETO                       301394030   00000000CAPITAL CONSIG SOCIEDADE DE CREDITO DIRE      4008366700011000000000000000000000000000000000000000000000000169
1                   02000000000000AA000000000400500000000285150000000000000000000000000446240 000000     0  77301390920620092500000000446240000000071 260225000020000000000000000000000000000000000000004462400000000000000100077014430963LEONIRDES SALETE WOLLMANN - 1970        ENDERECO COMPLETO                       301390920   00000000CAPITAL CONSIG SOCIEDADE DE CREDITO DIRE      4008366700011000000000000000000000000000000000000000000000000170
1                   02000000000000AA000000000400500000000288240000000000000000000000000187610 000000     0  77301386300330062500000000187610000000071 260225000020000000000000000000000000000000000000001876100000000000000100005960902346ROMULO ABREU LOPES - 1996               ENDERECO COMPLETO                       301386300   00000000CAPITAL CONSIG SOCIEDADE DE CREDITO DIRE      4008366700011000000000000000000000000000000000000000000000000171
1                   02000000000000AA000000000400500000000250710000000000000000000000000179520 000000     0  77301395930630092500000000179520000000071 260225000020000000000000000000000000000000000000001795200000000000000100076928926368JOSE WILKER ARAGAO COSTA - 1978         ENDERECO COMPLETO                       301395930   00000000CAPITAL CONSIG SOCIEDADE DE CREDITO DIRE      4008366700011000000000000000000000000000000000000000000000000172
1                   02000000000000AA000000000400500000000254790000000000000000000000000322560 000000     0  77301397880630092500000000322560000000071 260225000020000000000000000000000000000000000000003225600000000000000100090394518349LUCINILDA DE MOURA - 1981               ENDERECO COMPLETO                       301397880   00000000CAPITAL CONSIG SOCIEDADE DE CREDITO DIRE      4008366700011000000000000000000000000000000000000000000000000173
1                   02000000000000AA000000000400500000000255750000000000000000000000000532420 000000     0  77301397870630092500000000532420000000071 260225000020000000000000000000000000000000000000005324200000000000000100026657848315PAULO DE TASSO MARQUES DE PAIVA - 1967  ENDERECO COMPLETO                       301397870   00000000CAPITAL CONSIG SOCIEDADE DE CREDITO DIRE      4008366700011000000000000000000000000000000000000000000000000174
1                   02000000000000AA000000000400500000000268350000000000000000000000000042090 000000     0  77301396810620092500000000042090000000071 260225000020000000000000000000000000000000000000000420900000000000000100055273459400SELMA MARIA BEZERRA DE BRITO - 1953     ENDERECO COMPLETO                       301396810   00000000CAPITAL CONSIG SOCIEDADE DE CREDITO DIRE      4008366700011000000000000000000000000000000000000000000000000175
1                   02000000000000AA000000000400500000000269070000000000000000000000000040020 000000     0  77301396760620092500000000040020000000071 260225000020000000000000000000000000000000000000000400200000000000000100036614327453EMIDIO LUIZ DE OLIVEIRA - 1963          ENDERECO COMPLETO                       301396760   00000000CAPITAL CONSIG SOCIEDADE DE CREDITO DIRE      4008366700011000000000000000000000000000000000000000000000000176
1                   02000000000000AA000000000400500000000252870000000000000000000000000054410 000000     0  77301398290630092500000000054410000000071 260225000020000000000000000000000000000000000000000544100000000000000100016699971387MARIA DE FATIMA SILVA SANTOS - 1953     ENDERECO COMPLETO                       301398290   00000000CAPITAL CONSIG SOCIEDADE DE CREDITO DIRE      4008366700011000000000000000000000000000000000000000000000000177
1                   02000000000000AA000000000400500000000253830000000000000000000000000200000 000000     0  77301398080630092500000000200000000000071 260225000020000000000000000000000000000000000000002000000000000000000100011417080353MARIA SINFOROSA NOBRE DO N. - 1953      ENDERECO COMPLETO                       301398080   00000000CAPITAL CONSIG SOCIEDADE DE CREDITO DIRE      4008366700011000000000000000000000000000000000000000000000000178
1                   02000000000000AA000000000400500000000256680000000000000000000000000139080 000000     0  77301398640330062500000000139080000000071 260225000020000000000000000000000000000000000000001390800000000000000100063175983391ROMULO CACAU DE LIMA - 1982             ENDERECO COMPLETO                       301398640   00000000CAPITAL CONSIG SOCIEDADE DE CREDITO DIRE      4008366700011000000000000000000000000000000000000000000000000179
1                   02000000000000AA000000000400500000000257910000000000000000000000000261320 000000     0  77301398590630092500000000261320000000071 260225000020000000000000000000000000000000000000002613200000000000000100053226925334GLACIO HENRIQUE MELO RIOS - 1977        ENDERECO COMPLETO                       301398590   00000000CAPITAL CONSIG SOCIEDADE DE CREDITO DIRE      4008366700011000000000000000000000000000000000000000000000000180
1                   02000000000000AA000000000400500000000267630000000000000000000000000046620 000000     0  77301402920620092500000000046620000000071 270225000020000000000000000000000000000000000000000466200000000000000100032455208400WILLIAM ELIAS FERNANDES - 1962          ENDERECO COMPLETO                       301402920   00000000CAPITAL CONSIG SOCIEDADE DE CREDITO DIRE      4008366700011000000000000000000000000000000000000000000000000181
1                   02000000000000AA000000000400500000000287040000000000000000000000000132190 000000     0  77301402670330062500000000132190000000071 270225000020000000000000000000000000000000000000001321900000000000000100039228932368SUYANNY PATRICIO DE OLIVERIA - 1970     ENDERECO COMPLETO                       301402670   00000000CAPITAL CONSIG SOCIEDADE DE CREDITO DIRE      4008366700011000000000000000000000000000000000000000000000000182
1                   02000000000000AA000000000400500000000289440000000000000000000000000063500 000000     0  77301402500330062500000000063500000000071 270225000020000000000000000000000000000000000000000635000000000000000100031785026372MARIA LUCIA LOPES LAURINDO - 1959       ENDERECO COMPLETO                       301402500   00000000CAPITAL CONSIG SOCIEDADE DE CREDITO DIRE      4008366700011000000000000000000000000000000000000000000000000183
1                   02000000000000AA000000000400500000000293810000000000000000000000000243280 000000     0  77301403420820112500000000243280000000071 270225000020000000000000000000000000000000000000002432800000000000000100033799520449RITA DE CASSIA GOMES - 1950             ENDERECO COMPLETO                       301403420   00000000CAPITAL CONSIG SOCIEDADE DE CREDITO DIRE      4008366700011000000000000000000000000000000000000000000000000184
1                   02000000000000AA000000000400500000000264750000000000000000000000000122780 000000     0  77301404210620092500000000122780000000071 270225000020000000000000000000000000000000000000001227800000000000000100092910289400ELIANE LOURENCO CALIXTO - 1974          ENDERECO COMPLETO                       301404210   00000000CAPITAL CONSIG SOCIEDADE DE CREDITO DIRE      4008366700011000000000000000000000000000000000000000000000000185
1                   02000000000000AA000000000400500000000294750000000000000000000000000034800 000000     0  77301403810620092500000000034800000000071 270225000020000000000000000000000000000000000000000348000000000000000100073794139453VALMIR AVELINO - 1970                   ENDERECO COMPLETO                       301403810   00000000CAPITAL CONSIG SOCIEDADE DE CREDITO DIRE      4008366700011000000000000000000000000000000000000000000000000186
1                   02000000000000AA000000000400500000000315770000000000000000000000000866670 000000     0  77201399110620092500000000866670000000071 260225000020000000000000000000000000000000000000008666700000000000000100005566074731FELIPE SOARES DIONISIO - 1985           ENDERECO COMPLETO                       201399110   00000000CAPITAL CONSIG SOCIEDADE DE CREDITO DIRE      4008366700011000000000000000000000000000000000000000000000000187
1                   02000000000000AA000000000400500000000314800000000000000000000000000186480 000000     0  77201428450520092500000000186480000000071 070325000020000000000000000000000000000000000000001864800000000000000100035238235879ELIANA PEREIRA N. PARANHOS - 1987       ENDERECO COMPLETO                       201428450   00000000CAPITAL CONSIG SOCIEDADE DE CREDITO DIRE      4008366700011000000000000000000000000000000000000000000000000188
1                   02000000000000AA000000000400500000000313850000000000000000000000000097850 000000     0  77301416070620092500000000097850000000071 050325000020000000000000000000000000000000000000000978500000000000000100060087056968INDIA DA SILVA - 1959                   ENDERECO COMPLETO                       301416070   00000000CAPITAL CONSIG SOCIEDADE DE CREDITO DIRE      4008366700011000000000000000000000000000000000000000000000000189
1                   02000000000000AA000000000400500000000296810000000000000000000000000034420 000000     0  77301423330620092500000000034420000000071 060325000020000000000000000000000000000000000000000344200000000000000100005932628405ANA CLAUDIA ALVES DANTAS - 1983         ENDERECO COMPLETO                       301423330   00000000CAPITAL CONSIG SOCIEDADE DE CREDITO DIRE      4008366700011000000000000000000000000000000000000000000000000190
1                   02000000000000AA000000000400500000000297790000000000000000000000000061650 000000     0  77301422730820112500000000061650000000071 060325000020000000000000000000000000000000000000000616500000000000000100085497460453LUIS RICARDO BANDEIRA - 1972            ENDERECO COMPLETO                       301422730   00000000CAPITAL CONSIG SOCIEDADE DE CREDITO DIRE      4008366700011000000000000000000000000000000000000000000000000191
1                   02000000000000AA000000000400500000000300770000000000000000000000000036860 000000     0  77301423820620092500000000036860000000071 060325000020000000000000000000000000000000000000000368600000000000000100034507636876JAQUELINE PEREIRA DA SILVA - 1985       ENDERECO COMPLETO                       301423820   00000000CAPITAL CONSIG SOCIEDADE DE CREDITO DIRE      4008366700011000000000000000000000000000000000000000000000000192
1                   02000000000000AA000000000400500000000310490000000000000000000000000047320 000000     0  77301432390620092500000000047320000000071 070325000020000000000000000000000000000000000000000473200000000000000100075330970415JOSENILDO SOARES LEANDRO - 1969         ENDERECO COMPLETO                       301432390   00000000CAPITAL CONSIG SOCIEDADE DE CREDITO DIRE      4008366700011000000000000000000000000000000000000000000000000193
1                   02000000000000AA000000000400500000000311450000000000000000000000000083300 000000     0  77301432190620092500000000083300000000071 070325000020000000000000000000000000000000000000000833000000000000000100035441194472ANA ALICE RODRIGUES SOBREIRA - 1964     ENDERECO COMPLETO                       301432190   00000000CAPITAL CONSIG SOCIEDADE DE CREDITO DIRE      4008366700011000000000000000000000000000000000000000000000000194
1                   02000000000000AA000000000400500000000312410000000000000000000000000035350 000000     0  77301429210620092500000000035350000000071 070325000020000000000000000000000000000000000000000353500000000000000100027251870444JOAO GOMES DE LIMA FILHO - 1962         ENDERECO COMPLETO                       301429210   00000000CAPITAL CONSIG SOCIEDADE DE CREDITO DIRE      4008366700011000000000000000000000000000000000000000000000000195
1                   02000000000000AA000000000400500000000308830000000000000000000000000044450 000000     0  77301434500820112500000000044450000000071 100325000020000000000000000000000000000000000000000444500000000000000100016771675807LUIZ DE OLIVEIRA PEQUENO - 1977         ENDERECO COMPLETO                       301434500   00000000CAPITAL CONSIG SOCIEDADE DE CREDITO DIRE      4008366700011000000000000000000000000000000000000000000000000196
1                   02000000000000AA000000000400500000000309790000000000000000000000000030500 000000     0  77301433410820112500000000030500000000071 100325000020000000000000000000000000000000000000000305000000000000000100078900883453WELLINGTON PAIVA CHAVES - 1971          ENDERECO COMPLETO                       301433410   00000000CAPITAL CONSIG SOCIEDADE DE CREDITO DIRE      4008366700011000000000000000000000000000000000000000000000000197
1                   02000000000000AA000000000400500000000313390000000000000000000000000227170 000000     0  77301434880820112500000000227170000000071 100325000020000000000000000000000000000000000000002271700000000000000100048237086449DINARTE FERREIRA GOMES - 1966           ENDERECO COMPLETO                       301434880   00000000CAPITAL CONSIG SOCIEDADE DE CREDITO DIRE      4008366700011000000000000000000000000000000000000000000000000198
1                   02000000000000AA000000000400500000000299330000000000000000000000000030370 000000     0  77301425380620092500000000030370000000071 060325000020000000000000000000000000000000000000000303700000000000000100045071993449DELMO FERREIRA DA SILVA - 1965          ENDERECO COMPLETO                       301425380   00000000CAPITAL CONSIG SOCIEDADE DE CREDITO DIRE      4008366700011000000000000000000000000000000000000000000000000199
1                   02000000000000AA000000000400500000000300310000000000000000000000000309600 000000     0  77301424070820112500000000309600000000071 060325000020000000000000000000000000000000000000003096000000000000000100006781137425JESSE GEMINIANO JUNIOR - 1988           ENDERECO COMPLETO                       301424070   00000000CAPITAL CONSIG SOCIEDADE DE CREDITO DIRE      4008366700011000000000000000000000000000000000000000000000000200
1                   02000000000000AA000000000400500000000316740000000000000000000000000170000 000000     0  77301427100730112500000000170000000000071 070325000020000000000000000000000000000000000000001687000000000000000100030721890482JANE ELVIRA RABELO HOLLANDA - 1962      ENDERECO COMPLETO                       301427100   00000000CAPITAL CONSIG SOCIEDADE DE CREDITO DIRE      4008366700011000000000000000000000000000000000000000000000000201
1                   02000000000000AA000000000400500000000317690000000000000000000000000598500 000000     0  77301427150620092500000000598500000000071 070325000020000000000000000000000000000000000000005985000000000000000100018419517810ANDERSON AZEVEDO PEREIRA - 1978         ENDERECO COMPLETO                       301427150   00000000CAPITAL CONSIG SOCIEDADE DE CREDITO DIRE      4008366700011000000000000000000000000000000000000000000000000202
1                   02000000000000AA000000000400500000000301730000000000000000000000000043590 000000     0  77301428360620092500000000043590000000071 070325000020000000000000000000000000000000000000000435900000000000000100079756158468MARLINDA PADILHA DE ALBUQUERQUE - 1969  ENDERECO COMPLETO                       301428360   00000000CAPITAL CONSIG SOCIEDADE DE CREDITO DIRE      4008366700011000000000000000000000000000000000000000000000000203
1                   02000000000000AA000000000400500000000302330000000000000000000000000047220 000000     0  77301428230620092500000000047220000000071 070325000020000000000000000000000000000000000000000472200000000000000100079756158468MARLINDA PADILHA DE ALBUQUERQUE - 1969  ENDERECO COMPLETO                       301428230   00000000CAPITAL CONSIG SOCIEDADE DE CREDITO DIRE      4008366700011000000000000000000000000000000000000000000000000204
1                   02000000000000AA000000000400500000000302830000000000000000000000000142150 000000     0  77301428180820112500000000142150000000071 070325000020000000000000000000000000000000000000001421500000000000000100001378508408NERCY KARLA GOMES RODRIGUES - 1986      ENDERECO COMPLETO                       301428180   00000000CAPITAL CONSIG SOCIEDADE DE CREDITO DIRE      4008366700011000000000000000000000000000000000000000000000000205
1                   02000000000000AA000000000400500000000305930000000000000000000000000030490 000000     0  77301429140620092500000000030490000000071 070325000020000000000000000000000000000000000000000304900000000000000100013242822404JOAO BATISTA DE SOUZA - 1957            ENDERECO COMPLETO                       301429140   00000000CAPITAL CONSIG SOCIEDADE DE CREDITO DIRE      4008366700011000000000000000000000000000000000000000000000000206
1                   02000000000000AA000000000400500000000306910000000000000000000000000037360 000000     0  77301428910820112500000000037360000000071 070325000020000000000000000000000000000000000000000373600000000000000100083915923400RIVANILDO GOMES LIMEIRA - 1971          ENDERECO COMPLETO                       301428910   00000000CAPITAL CONSIG SOCIEDADE DE CREDITO DIRE      4008366700011000000000000000000000000000000000000000000000000207
1                   02000000000000AA000000000400500000000307850000000000000000000000000047400 000000     0  77301428480620092500000000047400000000071 070325000020000000000000000000000000000000000000000474000000000000000100065202805420VAGNE CORREIA DOS SANTOS - 1971         ENDERECO COMPLETO                       301428480   00000000CAPITAL CONSIG SOCIEDADE DE CREDITO DIRE      4008366700011000000000000000000000000000000000000000000000000208
1                   02000000000000AA000000000400500000000304030000000000000000000000000075570 000000     0  77301429210820112500000000075570000000071 070325000020000000000000000000000000000000000000000755700000000000000100032430000415JOSE JANDUHI INACIO DE SOUZA - 1958     ENDERECO COMPLETO                       301429210   00000000CAPITAL CONSIG SOCIEDADE DE CREDITO DIRE      4008366700011000000000000000000000000000000000000000000000000209
1                   02000000000000AA000000000400500000000304970000000000000000000000000173000 000000     0  77301429200620092500000000173000000000071 070325000020000000000000000000000000000000000000001730000000000000000100054475970482MARTIM SANTOS DE SOUTO - 1967           ENDERECO COMPLETO                       301429200   00000000CAPITAL CONSIG SOCIEDADE DE CREDITO DIRE      4008366700011000000000000000000000000000000000000000000000000210
1                   02000000000000AA000000000400500000000321040000000000000000000000000239970 000000     0  77201433950520092500000000239970000000071 100325000020000000000000000000000000000000000000002399700000000000000100030474888860RADINE ELIZABETH FESSEL NEME - 1982     ENDERECO COMPLETO                       201433950   00000000CAPITAL CONSIG SOCIEDADE DE CREDITO DIRE      4008366700011000000000000000000000000000000000000000000000000211
1                   02000000000000AA000000000400500000000320080000000000000000000000000304280 000000     0  77201415870520092500000000304280000000071 050325000020000000000000000000000000000000000000003042800000000000000100038386532890NATHALIA ROMERO LOPES HONORIO - 1988    ENDERECO COMPLETO                       201415870   00000000CAPITAL CONSIG SOCIEDADE DE CREDITO DIRE      4008366700011000000000000000000000000000000000000000000000000212
1                   02000000000000AA000000000400500000000324900000000000000000000000000302660 000000     0  77201421740720102500000000302660000000071 060325000020000000000000000000000000000000000000003026600000000000000100086501046149ADRIANA SOUSA DE OLIVEIRA - 1978        ENDERECO COMPLETO                       201421740   00000000CAPITAL CONSIG SOCIEDADE DE CREDITO DIRE      4008366700011000000000000000000000000000000000000000000000000213
1                   02000000000000AA000000000400500000000322960000000000000000000000000485710 000000     0  77201424760520092500000000485710000000071 060325000020000000000000000000000000000000000000004857100000000000000100062451197749TANIA MARIA PRETE PESTANA - 1960        ENDERECO COMPLETO                       201424760   00000000CAPITAL CONSIG SOCIEDADE DE CREDITO DIRE      4008366700011000000000000000000000000000000000000000000000000214
1                   02000000000000AA000000000400500000000322000000000000000000000000000308900 000000     0  77201433540520092500000000308900000000071 100325000020000000000000000000000000000000000000003089000000000000000100022649338873CAMILA PEDROSO FERREIRA - 1984          ENDERECO COMPLETO                       201433540   00000000CAPITAL CONSIG SOCIEDADE DE CREDITO DIRE      4008366700011000000000000000000000000000000000000000000000000215
1                   02000000000000AA000000000400500000000323920000000000000000000000000660500 000000     0  77201428260520092500000000660500000000071 070325000020000000000000000000000000000000000000006605000000000000000100006923538793ANA PAULA SA FREIRE BASTOS - 1976       ENDERECO COMPLETO                       201428260   00000000CAPITAL CONSIG SOCIEDADE DE CREDITO DIRE      4008366700011000000000000000000000000000000000000000000000000216
1                   02000000000000AA000000000400500000000325820000000000000000000000000785740 000000     0  77201427100320072500000000785740000000071 070325000020000000000000000000000000000000000000007857400000000000000100028585521856MARIA LUCIA PERPETUO GASPAR - 1979      ENDERECO COMPLETO                       201427100   00000000CAPITAL CONSIG SOCIEDADE DE CREDITO DIRE      4008366700011000000000000000000000000000000000000000000000000217
1                   02000000000000AA000000000400500000000318160000000000000000000000000336090 000000     0  77201436300520092500000000336090000000071 100325000020000000000000000000000000000000000000003360900000000000000100007884396858ANTONIO LUIZ GONCALVES - 1967           ENDERECO COMPLETO                       201436300   00000000CAPITAL CONSIG SOCIEDADE DE CREDITO DIRE      4008366700011000000000000000000000000000000000000000000000000218
1                   02000000000000AA000000000400500000000319120000000000000000000000000199810 000000     0  77201436600520092500000000199810000000071 100325000020000000000000000000000000000000000000001998100000000000000100052290534889INGRID SEABRA ZANI DO VALLE - 2001      ENDERECO COMPLETO                       201436600   00000000CAPITAL CONSIG SOCIEDADE DE CREDITO DIRE      4008366700011000000000000000000000000000000000000000000000000219
1                   02000000000000AA000000000400500000000455330000000000000000000000000369760 000000     0  77301372760630092500000000369760000000071 070325000020000000000000000000000000000000000000003697600000000000000100063579022334RAIMUNDO FLAVINEI M LIBERATO - 1978     ENDERECO COMPLETO                       301372760   00000000CAPITAL CONSIG SOCIEDADE DE CREDITO DIRE      4008366700011000000000000000000000000000000000000000000000000220
1                   02000000000000AA000000000400500000000403130000000000000000000000000312180 000000     0  77301407430620092500000000312180000000071 280225000020000000000000000000000000000000000000003121800000000000000100066146712787ISABEL CRISTINA NUNES DE SOUZA - 1961   ENDERECO COMPLETO                       301407430   00000000CAPITAL CONSIG SOCIEDADE DE CREDITO DIRE      4008366700011000000000000000000000000000000000000000000000000221
1                   02000000000000AA000000000400500000000412140000000000000000000000000076210 000000     0  77301396350730102500000000076210000000071 280225000020000000000000000000000000000000000000000762100000000000000100035960388391JOSE ARRIBAMAR CEDRO - 1959             ENDERECO COMPLETO                       301396350   00000000CAPITAL CONSIG SOCIEDADE DE CREDITO DIRE      4008366700011000000000000000000000000000000000000000000000000222
1                   02000000000000AA000000000400500000000431110000000000000000000000000104520 000000     0  77301407420820112500000000104520000000071 270225000020000000000000000000000000000000000000001045200000000000000100083090045320MARIA AURENIR VERAS LIMA - 1974         ENDERECO COMPLETO                       301407420   00000000CAPITAL CONSIG SOCIEDADE DE CREDITO DIRE      4008366700011000000000000000000000000000000000000000000000000223
1                   02000000000000AA000000000400500000000444050000000000000000000000000066040 000000     0  77301403750630092500000000066040000000071 060325000020000000000000000000000000000000000000000660400000000000000100014494140368MARIA LUCIMAR VIEIRA - 1957             ENDERECO COMPLETO                       301403750   00000000CAPITAL CONSIG SOCIEDADE DE CREDITO DIRE      4008366700011000000000000000000000000000000000000000000000000224
